03031102019RedecardExtrato de Movimentacao FinanceiraWESTWING              000489038959011DIARIO         V3.01 - 09/06 - EEFI
040038959011000000000000000000000109201930092019000000000000000
040038977672000000000000000000000109201930092019000000000000000
040067603335000000000000000000000109201930092019000000000000000
040077879899000000000000000000000109201930092019000000000000000
040080884016000000000000000000000109201930092019000000000000000
0520000000007038959011000000000000000000000000000000000000000000000000000000000000000000000000000000
